:020000040800F2
:1000000020CB002079020008072800089D22000864
:100010000528000821100008DD3400080000000059
:10002000000000000000000000000000C101000806
:10003000DD1E00080000000015020008352C000835
:10004000930200089302000893020008930200083C
:10005000930200089302000893020008930200082C
:10006000930200089302000893020008930200081C
:10007000930200089302000893020008930200080C
:1000800093020008930200089302000893020008FC
:10009000FD10000893020008930200089302000874
:1000A00093020008930200089302000893020008DC
:1000B00093020008930200089302000893020008CC
:1000C00093020008930200089302000893020008BC
:1000D00093020008FD2C0008C52E0008E13000083E
:1000E000930200089302000893020008930200089C
:1000F000930200089302000893020008930200088C
:10010000930200089302000893020008930200087B
:100110009302000893020008A52C0008930200082F
:10012000930200089302000893020008930200085B
:10013000930200089302000893020008930200084B
:10014000930200089302000893020008930200083B
:10015000930200089302000893020008E5300008AB
:10016000930200089302000893020008930200081B
:10017000930200089302000893020008930200080B
:1001800093020008930200089302000893020008FB
:1001900093020008930200089302000893020008EB
:1001A000000000000000000093020008DFF80CD0FF
:1001B00000F060FC00480047B153000820CB00204D
:1001C0002A4B19680868B0E8F04F80F30988BFF33C
:1001D0006F8F4FF0000080F311887047000000001F
:1001E00006480068006880F3088862B661B6BFF30D
:1001F0004F8FBFF36F8F00DF00BF00BF08ED00E03F
:10020000DFF80C00016841F470010160704700BF25
:1002100088ED00E0EFF30980BFF36F8F134B1A688E
:100220001EF0100F08BF20ED108A20E9F04F10607B
:1002300008B44FF0500080F31188BFF34F8FBFF325
:100240006F8F06F08FF94FF0000080F3118808BC23
:1002500019680868B0E8F04F1EF0100F08BFB0EC46
:10026000108A80F30988BFF36F8F70474800002021
:10027000EFF30580704700000648804706480047B6
:10028000FEE7FEE7FEE7FEE7FEE7FEE7FEE7FEE746
:10029000FEE7FEE7492C0008AD01000840EA010333
:1002A0009B0703D009E008C9121F08C0042AFAD22C
:1002B00003E011F8013B00F8013B521EF9D27047F0
:1002C000D2B201E000F8012B491EFBD27047002298
:1002D000F6E710B513460A4604461946FFF7F0FF45
:1002E000204610BD0FB400B58DB010A909900B9039
:1002F00000914FF0FF300A9000200C9005480690C6
:10030000054807906A4609A80F9900F0CFF90DB08B
:100310005DF814FBC9060008E70600082DE9FF5F39
:100320001D464FF0FF3BD5E9014691465F464FF031
:100330000008A9697F1C01988847296A8246884776
:100340000028F6D1BAF1FF3F0CD024F4C064002E8F
:1003500019DD600614D5BAF12B0F09D0BAF12D0FB3
:100360000ED103E0584604B0BDE8F09F44F4806429
:10037000A9697F1C01988847761E8246002E02DDFF
:10038000BAF1300F03D0B9F1000F26D032E0A969DD
:10039000761E44F400747F1C019888478246002E24
:1003A00005DDBAF1780F06D0BAF1580F03D0B9F1D4
:1003B000000F10D01EE0B9F1000F02D0B9F1100FFC
:1003C00018D1A969761E24F400747F1C019888470F
:1003D0008246102002E0082000E00A20814609E061
:1003E00008FB0908A969761E44F400747F1C019873
:1003F00088478246002E05DD4946504600F041F907
:100400000028EDDAE96901988847A00502D46FF069
:100410000100A8E7E00725D1600613D5600502D5E5
:10042000C8F1000000E0404629680A1D2A600968FA
:10043000220501D5087015E0220701D5088011E0DA
:1004400008600FE02868011D29600068210502D5B9
:1004500080F8008006E0210702D5A0F8008001E0C6
:10046000C0F8008038467EE72DE9FE4F804681EADD
:100470000300C00F0C46009021F0004123F000451E
:10048000B8EB0200A94105D24046214690461C46E1
:100490000B46024623F00040104347D0270DC7F318
:1004A0000A00C3F30A510290401A019040286BDA07
:1004B000C3F3130040F4801B0098924620B1002340
:1004C000D2EB030A63EB0B0B01985946C0F14002D3
:1004D000504600F0B5F806460D4650465946019A7A
:1004E00000F0BDF810EB08006141002487EA1152CA
:1004F00084EAE7731A4340D0009A62B3019A012A52
:100500004FEA075215DC001B61EB02014FF000427D
:1005100002EA0752CDE90042001C41F58011324643
:100520002B4600F037F903B0BDE8F08F4046214676
:10053000F9E7001B61EB0201001C41F58013001874
:100540005B412018A2F5001747EB030140EAD57084
:10055000B6196D4111E06D084FEA360645EAC075DF
:100560004FEA0752001B61EB0201001C41F58011AC
:1005700049084FEA30000019514132462B4603B07A
:10058000BDE8F04F00F0F7B80098012240000023CA
:10059000D0EB020263EBE073009821464FEAE0746F
:1005A000B8EB000061EB0401E9E783F000435BE78F
:1005B00081F0004158E700F0004230F000400AD0DE
:1005C000C10D01F56071C0F3160042EA0151C20885
:1005D00040071143704700200146704701F0004377
:1005E00030B421F0004150EA010206D00A0DA2F514
:1005F0006072C1F31301002A02DC30BC0020704796
:10060000440F44EAC104C100E01830BC00EBC25002
:1006100000F07AB830B50B460146002020220124B4
:1006200009E021FA02F59D4205D303FA02F5491BC0
:1006300004FA02F52844151EA2F10102F1DC30BDD6
:10064000202A04DB203A00FA02F100207047914092
:10065000C2F1200320FA03F3194390407047202A87
:1006600006DBCB17203A41FA02F043EAE07306E0DA
:1006700041FA02F3D040C2F12002914008431946EA
:1006800070473A2800D2303820F02002412A01D3A6
:10069000A2F13700884201D34FF0FF3070470000CD
:1006A000026811441378016018467047D16004490C
:1006B00051610449116200211161114600F002BA32
:1006C000A1060008B90A0008426842B1016811F8A1
:1006D000013B23B1521EC0E90012184670470121A8
:1006E000C160881E704742685AB1C368016843B947
:1006F00083688B4205D0491E521CC0E900120020BD
:1007000070474FF0FF3070470029A8BF7047401C6A
:10071000490008BF20F00100704710B4B0FA80FC17
:1007200000FA0CF050EA010404BF10BC704749B154
:10073000CCF1200421FA04F411FA0CF118BF0121C4
:1007400021430843A3EB0C01CB1D4FEA00614FEAA4
:10075000102042BF002010BC704700EBC350104473
:100760000029A4BF10BC7047401C490008BF20F0FE
:10077000010010BC704710B5141E73F1000408DAB4
:10078000401C41F1000192185B411A4301D120F055
:10079000010010BD2DE9F04D92469B4611B1B1FA12
:1007A00081F202E0B0FA80F220329046FFF748FF73
:1007B00004460F4640EA0A0041EA0B0153465A46F6
:1007C000084313D0114653EA010019D0C8F1400282
:1007D000504600F061F905460E46504659464246DD
:1007E000FFF72EFF084305D0012004E020463946DC
:1007F000BDE8F08D0020054346EAE0762C43374300
:100800000A986305E40AA0EB08000022FD0A44EA06
:1008100047540A3002D500200146E9E701051019C6
:100820006941DDE9084500196941BDE8F04DA2E7DD
:100830002DE9FE4F81EA030404F0004421F0004159
:1008400000944FF0000B23F0004350EA01045ED007
:1008500052EA03045BD0C3F30A54C1F30A552C4493
:10086000A4F2F3340194A0FB0254C1F3130141F448
:100870008011C3F3130343F4801301FB024400FB14
:10088000034E840A970A44EA815447EA8357A4FB3B
:10089000076802958D0A05FB07854FEA932C04FB38
:1008A0000C542705029D4FEA065847EA1637B5EB68
:1008B00008056EEB070C870E920E47EA811742EA95
:1008C0008312A7FB0201B6EB0B0164EB00042B0DB6
:1008D00043EA0C335E1844EB1C50DA465146E7FB02
:1008E0000201C5F313044FEA0B3343EA14534FEAF2
:1008F0000432019C43EA0603A4F10C040294009C18
:10090000CDE900B4FFF746FF03B0BDE8F08F00204B
:100910000146F9E72DE9F04D81EA030404F0004BAC
:1009200021F0004514464FF0000A23F0004150EA40
:10093000050220D054EA01021DD0C5F30A57024631
:10094000C5F31303C1F31300C1F30A5640F4801535
:1009500043F48013A7EB0608101BD64608F2FD38B7
:1009600073EB050002D308F1010801E092185B4126
:10097000B8F1000F03DA00200146BDE8F08D002039
:100980004FF48011064684460EE0171B73EB0507F3
:1009900005D3121B63EB050306434CEA010C49081F
:1009A0004FEA300092185B4150EA0107EDD152EA5C
:1009B000030012D082EA040083EA0501084305D04F
:1009C000101BAB4106D20122002306E000224FF0AB
:1009D000004302E06FF0010253101AEB06004CEBEB
:1009E000085110EB0A0041EB0B01BDE8F04DFFF799
:1009F000C2BE70B521F0004303430CD0C1F30A55C9
:100A00000024D5EB040564EB0403D617AD1AB341FB
:100A100002DB0020014670BD201841EB025170BD81
:100A20000EB5C10F80EAE0700844CA07002140F209
:100A300033438DE80E000A460B46FFF7ABFE03B0CA
:100A400000BD000030B5041E71F1000404DB4FF05E
:100A50000044404264EB0101141E73F1000405DB05
:100A60001C464FF00043524263EB0403994208BF17
:100A7000904230BD064C074D06E0E06840F00103AF
:100A800094E8070098471034AC42F6D3FFF792FB86
:100A9000D0760008F0760008202A04DB203A21FAFC
:100AA00002F00021704721FA02F3D040C2F1200287
:100AB0009140084319467047C0B24FF4F05100F01E
:100AC000E9B900002DE9F34F8BB04FF0000801F1B8
:100AD0000C000C464FF0010B46460DF1080A019040
:100AE0006269012101989047051E2DD0252D2CD03B
:100AF000216A8847C0B16269012101989047216A43
:100B000088470028F7D1411E62690198904700E0AC
:100B1000761CA1690B988847216A88470028F7D17D
:100B2000E1690B988847DBE7A1690B98884707467E
:100B3000A84201D1761CD3E7E1690B9888477F1C56
:100B400002D1B8F1000F6FD046E1002762693D463F
:100B50003946019890472A2804D1626901210198F9
:100B600090470125DFF8849262690121019890473E
:100B7000A0F130010A290AD24F45E5DC07EB8701D5
:100B800000EB4107303FDFD445F01005ECE7E90604
:100B900001D46FF000476C280AD04C2814D0682884
:100BA00015D06A280DD074281CD07A281AD01DE0E0
:100BB00062690121019890476C2802D045F0040534
:100BC00014E045F002050DE045F020050AE06269F9
:100BD000012101989047682802D045F0080505E0FA
:100BE00045F400656269012101989047C4E9015705
:100BF00065283DD019DC58287AD00CDC452837D040
:100C000004DC252826D0412831D131E046282FD0D8
:100C100047282CD12CE05B2877D0612828D0632886
:100C20007CD0642823D15AE0D0E06F2848D008DC7B
:100C300066281DD067281BD0692821D06E2816D1C0
:100C400027E0702845D0732868D0752847D07828C9
:100C50000DD14DE0A1690B988847054625283FF442
:100C600069AFE1690B9888476D1C3FF46AAFB3E048
:100C700023466A466FF001000B99AFF300809EE0B7
:100C800045F040006060A80723464FF0000236D4CC
:100C90003EE0E8077FF447AF2068011D216000684F
:100CA000290501D506701BE7290701D5068017E73E
:100CB000A90703D5F117C0E9006111E706600FE746
:100CC00045F040006060A80723464FF0080216D4A4
:100CD0001EE040F60E0125EA0100606016E045F0D6
:100CE00040006060A80723464FF00A0207D40FE0D7
:100CF00045F040006060A80708D5234610226FF039
:100D000001000B99AFF3008059E007E02346102261
:100D10006FF001000B99FFF701FB50E04FF0000965
:100D20004F464B46632802D05B2806D040E0E806D9
:100D300001D40120A06001273AE0626901210198F5
:100D400090475E2805D14FF0010962694946019834
:100D50009047216939B900210A46534643F82120BA
:100D6000491C0829FADBB0B3216969B9C11700EB46
:100D7000D16253110AEB830122F01F02821A012073
:100D80000B68904003430B60626901210198904712
:100D90005D28E8D1B9F1000F09D00020514651F883
:100DA0002020D24341F82020401C0828F7DB02AB6A
:100DB000224600976FF001000B99AFF300800028E6
:100DC0000CDA401C08D1BBF1000F05D04FF0FF300A
:100DD0000DB0BDE8F08FFFE74046F9E7E90701D124
:100DE00008F1010806444FF0000B79E6CCCCCC0C9E
:100DF0002DE9F04D00231A461B1A8A4103DB00201F
:100E00000146BDE8F08DC1F30A52C1F3130141F46C
:100E100080154FF0000BD10702D100186D41521E12
:100E20000027044640F2FF11384601EB620A3E46B5
:100E30008046024600204FF48011FFF72DFEC219B4
:100E40007141BB1846EB0100B4EB030C75EB000CD1
:100E500004D3E41A65EB000517460E46241908F181
:100E600001006D4180463428E3DDF91946EB0600A8
:100E7000091BA84103D24FF0FF32134601E00022C4
:100E800013461BEB070046EB0A51BDE8F04DFFF798
:100E900072BC00007F2801D9002208E0064A02EB5C
:100EA0005002C007127800D1120902F00F0201208F
:100EB00090400840704700009076000810B5044844
:100EC00002F038F8BDE810400821024802F086B868
:100ED00060E316003C00002017B583B000200090AE
:100EE0000190039810600498506014469FED0B0A1F
:100EF000694603A801F062F89FED090A01A904A858
:100F000001F05CF80098A060A0F5A0700199C4E918
:100F10000310F039616106B010BD00009A99193FC5
:100F2000CDCCCC3E0FB43C48F0B50125059FBDF8B3
:100F30001F20BDF82110BDF823309DF82560A7F2D1
:100F4000012700F59874072F13D2DFE807F0041586
:100F5000191D2C344B0052BA028049BA418059BA4B
:100F60008180C68080F84650B0F84810491CA0F82F
:100F70004810F0BC5DF814FB52BA20F84C2F06E084
:100F800052BA20F8982F02E052BA20F8E42F49BA5A
:100F9000418059BA8180C68080F8465030F8481F99
:100FA000491C0180E5E750BA24F8020B48BA24F83E
:100FB000BA0B002008E050BAA4F8E00048BAA4F840
:100FC000E200012004F5CE7401F0F0FB34F9BC0C12
:100FD000B4F9101000EB4130E060A577208C401C84
:100FE0002084C6E70D4C50BA208048BA608058BAB9
:100FF000A080002001F0B6FBB4F90000B4F9CC10D9
:1010000000EB4130C4F8C80084F8DE50B4F8E000CA
:10101000401CA4F8E000ACE700040020F00600202B
:10102000FEE70000F0B589B00121082001F064FC62
:101030000121480601F06CFC02268DF820608DF835
:10104000216000242B4F8DF823408DF8224007A902
:101050003846079601F082F809220121384601F04E
:10106000CEF8012507A93846079501F077F809223F
:101070000021384601F0C3F88DF806408DF807507E
:101080008DF8046004208DF808508DF802408DF82A
:1010900005008DF809408DF803400520164E8DF8A7
:1010A0000A40ADF800008DF80B406946304600F06C
:1010B0006FF98DF816408DF817408DF81850ADF87F
:1010C0000C40ADF81040ADF814408DF81950ADF853
:1010D0000E40ADF8124003A800F098F800220A2153
:1010E000142001F091FB01220221304600F048F962
:1010F00009B0F0BD000C02400064004010B586B09D
:101100000020124C05900221204600F0E5F800284E
:1011100019D06A460021204600F0AEF90C480023A1
:1011200005AA6946006805F017FD059838B1094918
:101130004FF080500860BFF34F8FBFF36F8F0221D5
:10114000204600F027F806B010BD00000064004003
:101150000C00002004ED00E00C4C0D4F86B04FF069
:10116000FF354FF4007600232A4601A9606805F098
:1011700017FB05980DF1040C00909CE80F00FFF799
:10118000D1FE3146384601F04EF8ECE70800002069
:101190000010024030B5082310240422B1F5007F6E
:1011A0001DD010DC202929D007DC012921D00429F9
:1011B00022D0082900D1C46030BD402920D0B1F52B
:1011C000807FF9D10BE00025B1F5004F06D008DC97
:1011D000B1F5806F03D0B1F5006FEDD1856142604C
:1011E00030BDB1F5803F0DD0B1F5003FF8D144607E
:1011F00030BD0549816030BDC36030BD036130BD85
:10120000046130BD436030BD01010100F0B5827A58
:10121000012191402E4A136843F0010313602C4BC7
:101220001C331C688C431C60294D067B294C0C35F3
:10123000A6B92E688E432E604688C78846EA0746C0
:10124000877A04EBC707C7F840660688878846EAAE
:101250000746877A04EBC707C7F84466067B012E6A
:1012600012D12E680E432E60867A056804EBC606FE
:101270004FEA3545C6F84056867A456804EBC60401
:101280004FEA3545C4F84456114CC57A241D002D4B
:10129000256806D00D4325600D4C0589143415B121
:1012A00004E08D43F7E725688D4325600589012D0E
:1012B00002D125680D432560407B012802D11868C2
:1012C00008431860106820F001001060F0BD0000B5
:1012D00000660040006000400246002053690B4257
:1012E0004AD0B1F5807F3BD013DC08292ED007DC33
:1012F000012926D0022927D004293DD1D0682BE02E
:10130000102925D0202926D0402935D11069102157
:1013100030E0B1F5004F2BD00BDCB1F5007F22D0CF
:10132000B1F5806F22D0B1F5006F25D190697021A1
:1013300020E0B1F5803F11D0B1F5003F1CD15068DD
:10134000E5E790680D4915E0D06802E0D068DEE777
:10135000106903210EE0106908210BE05068FBE7DB
:101360009069012106E09069022103E0906900E0A4
:101370005068042100F0ACB9704700000101010081
:10138000002A426901D00A4300E08A434261704763
:1013900010B50368002223F002030360036843F0E2
:1013A000010303604FF6FF7300E0521C4468E4073A
:1013B00001D19A42F9D14268D2073ED08A79012AF6
:1013C00002683CD022F080020260CA79012A0268D9
:1013D00038D022F0400202600A7A012A026834D032
:1013E00022F0200202604A7A012A026830D022F0FC
:1013F000100202608A7A012A02682CD022F00802C8
:101400000260CA7A012A026828D022F0040202602F
:101410008A78CC78920742EA04620C7942EA044264
:101420004C79098842EA0452491E0A43C2610168A4
:1014300021F001010160002114E0002010BD42F004
:101440008002C1E742F04002C5E742F02002C9E74E
:1014500042F01002CDE742F00802D1E742F0040268
:10146000D5E7491C4268D20701D09942F9D14068BA
:10147000C007E2D1012010BD10B500EB0113D3F875
:10148000B04114F004041472D3F8B04134D0E4082D
:10149000C2F80440D3F8B04104F002045472D3F807
:1014A000B44104F00F049472D3F8B441240AD47404
:1014B000D3F8B841D472D3F8B841240A1473D3F8DE
:1014C000B841240C5473D3F8B841240E9473D3F864
:1014D000BC41D473D3F8BC41240A1474D3F8BC4182
:1014E000240C5474D3F8BC311B0E937439B10169C8
:1014F00041F02001016110BD640D1460CAE7C168AC
:1015000041F02001C16010BD1CB514210022084625
:1015100005F008F905490023802248600420CDE940
:10152000000103A1064805F0D1FB1CBD0800002006
:1015300043414E5F526563656976655461736B0024
:101540005911000830B50246002093685B0108D4A9
:101550009068000101D5012003E09068C00037D5F4
:10156000022002EB0012D2F8803103F00103C2F82E
:1015700080310B7A73B3D2F880414D681C434B7AAB
:1015800043EAC5031C43C2F880418B7A03F00F0382
:101590008B72D2F8843123F00F03C2F88431D2F871
:1015A00084318C7A2343C2F88431CB7ACC6843EA05
:1015B0000423C2F88831CB7B096943EA0121C2F8D0
:1015C0008C11D2F8801141F00101C2F8801130BDB8
:1015D000042030BDD2F880314C7A23430C8843EA92
:1015E0004453C2F88031D0E730B585B0B1B1019233
:1015F0008DF8081000218DF8091008218DF80A10C7
:1016000000216A465C5C5518491CC9B2EC72082975
:10161000F8D31146FFF796FF05B030BD0092E7E71B
:1016200070B527489FED250A4FF47A742DED028B93
:10163000E5009FED248A80ED010A22462946B0EE9E
:10164000481AF7EE080AB0EE040A1F4800F0DAFE66
:101650001D4822462946B0EE481AF7EE080AB0EEB9
:10166000040A4C3000F0CEFE174822462946B0EE60
:10167000481AF7EE080AB0EE040A983000F0C2FEED
:10168000114822462946B0EE481AF7EE080AB0EE95
:10169000040AE43000F0B6FEF0EE480A6210BDEC39
:1016A000028B41F29411BDE870400548B2EE0B1A6E
:1016B0009FED060A143001F007B900000AD7233D58
:1016C00080030020000000000804002066664640F9
:1016D000024600200A4200D0012070471CB5040ACF
:1016E0008DF800408DF80100080A8DF80200100AFC
:1016F0008DF804008DF80520180A8DF806008DF885
:1017000003108DF807306B4640F2FF1200210248AB
:10171000FFF76AFF1CBD0000006400401CB5020A10
:101720008DF800208DF80100080A8DF802000020D5
:101730008DF80310014601906B4640F2FF120248FB
:10174000FFF752FF1CBD00000064004070B5B2B04E
:101750003F489FED3E0A3F4980ED010A02AD91ED01
:10176000320A3E490AAEB8EEC00A80ED030A80EDA7
:10177000020A9FED390A80ED050A80ED040A91ED19
:10178000070A80ED070A80ED060A91ED030A80ED55
:10179000090A80ED080A32481EC885E81E000024A8
:1017A00006940794089409942EC886E82E002EC843
:1017B000CDE911540EAD13941494159485E80E00E0
:1017C0002EC816AE86E82E002EC8CDE91D541AADDF
:1017D0001F942094219485E80E002EC822AE86E83E
:1017E0002E002EC8CDE9295426AD2B942C942D948F
:1017F00085E80E000FC82EAE4FF4FA7586E80F008C
:101800001348CDE900540AAB06AA02A9383000F00B
:10181000E7FBEE000E48CDE9006416AB12AA0EA954
:10182000983000F0DDFBCDE9005422AB1EAA1AA9C6
:101830000C4800F0D5FB0B48CDE900642EAB2AAA7A
:1018400026A9603800F0CCFB32B070BDCDCCCC3DC9
:10185000B001002030050020002080450801002054
:10186000F07100087806002030B41A4A01282BD005
:10187000022829D0032827D117490323F4EE000AB0
:1018800091ED050A91ED061A1449F1EE0C1A60EE7D
:10189000200A0C6981EE210A94FBF3F401EE104A50
:1018A000B8EEC11A71EE200AC2ED000A4C6994FB31
:1018B000F3F300EE903A0023F8EEE00A30EE800AEF
:1018C00082ED010A0B614B6192EC020A30BC00F020
:1018D00007B80000340000206001002068030020E9
:1018E0002DE9F041724EF0EE401A724C96ED320A3C
:1018F000714D0228B8EEC00A84ED020A84ED030A95
:101900006AD095F82600012866D0B3EE0E2A94ED31
:10191000061A81EE820A30EE010A84ED060A94ED81
:10192000040A30EE600A84ED040A00F0A3FCD5ED51
:10193000070A30EE200A84ED0A0A00F09BFCDFED76
:101940005F0A30EEC00AD5ED070A30EEC00A84ED1A
:101950000B0A00F081FCD5ED030A30EE200A84ED7D
:101960000C0A00F079FCDFED560A30EEC00AD5ED26
:10197000030A30EEC00A84ED0D0A95ED071AD4ED86
:101980000A0AB4EE000A21EE800AB4EEE01AF1EE83
:1019900010FA0CDDF5EEC01AF1EE10FA05D2C0EE29
:1019A000020AD4ED062A70EEA20AC4ED060AD4EDAE
:1019B0000B0AB4EEE01AF1EE10FA23D2F5EEC01ADB
:1019C000F1EE10FA1CDDC0EE020A94ED060A30EECC
:1019D000600A84ED060A15E0D5ED040A95ED070AC4
:1019E00000F06CFC9FED370A002384ED040A84EDBF
:1019F000050ABDE8F0411A4619461846FFF76EBEC3
:101A0000C4ED060A2B499FED300A1C31081F00F077
:101A1000CAFA28499FED2D0A1431081F00F0C3FAB5
:101A200094ED050A0120BDEEC00A10EE101A00F078
:101A3000DFFE96F8DE000027A8B91E48D5ED070A9C
:101A400094ED070A383000F0FFFA00EE100A19484A
:101A5000D5ED020AB8EEC00A983000F0F5FAA6F803
:101A6000D80086F8DA7096F8BE01C0B996ED6A0A19
:101A70001748F8EEC00A96ED6C0AB8EEC00A00F0FE
:101A8000E3FA00EE100A1248D5ED010AB8EEC00ADA
:101A9000603800F0D9FAA6F8B80186F8BA71B6F93C
:101AA000B811B6F9D800BDE8F041FFF737BE000025
:101AB00030050020B00100200801002044383443E4
:101AC0003EDE034200208045CDCCCC3ECDCCCC3D8B
:101AD0007806002008B50020084C094E4FF48045D8
:101AE00000902078FFF7C0FE2946304600F09BFBAF
:101AF0000A21684604F05CFBF3E700008003002045
:101B0000001002401CB50F480224CDE9004000231C
:101B100080220DA1104805F0D9F80A480023001DC5
:101B2000CDE9004080220DA1104805F0CFF805480E
:101B300000230830CDE9004022020DA10F4805F036
:101B4000C5F81CBD28000020446576696365735F95
:101B50005461736B00000000911F00084C45445F06
:101B60004C696768745461736B0000005526000867
:101B7000436C6F75645F5461736B0000D51A000885
:101B80000029016802D041F0010101E021F00101CA
:101B9000016070472DE9F043016821F00101016007
:101BA0000021016041608160C160016121214161CA
:101BB0003C493C4A3D251039904202D18D60BDE838
:101BC000F083384A4FF474661832904201D18E6027
:101BD000F5E7344A4FF474173032904201D18F60E8
:101BE000EDE7304A4FF0746C4832904202D1C1F8B0
:101BF00008C0E4E72B4B2C4A6033984201D1CA60FD
:101C0000DDE7284C294B7834A04201D1CB60D6E7E0
:101C1000DFF89080264C08F19008404501D1CC6057
:101C2000CDE7DFF880804FF03D5908F1A808404526
:101C300002D1C1F80C90C2E71E49DFF8788008395C
:101C4000404501D10D60BAE71A4D1835A84201D1BF
:101C50000E60B4E7174D3035A84201D10F60AEE7F2
:101C6000144D4835A84202D1C1F800C0A7E7114D74
:101C700010496035091FA84201D10A609FE70D4A4B
:101C80007832904201D10B6099E70A4A9032904233
:101C900001D10C6093E7074AA83290428FD1C1F876
:101CA00000908CE7106002403D000020400F0020B3
:101CB00000003D2010640240014600200968C90769
:101CC00000D001207047406880B2704730B503688B
:101CD000124ACC6813400A682243D1E905452C43D7
:101CE0002243CC6922430C6A22434C6A22438C6A09
:101CF00022434C6B22438C6B22431A43026042699D
:101D000022F00703D1E90B2422431A4342610A69F6
:101D100042604A6882608968C16030BD3F801CF0C3
:101D20004160704710B5044801F01EF8BDE810404E
:101D30001421024801F06CB8A08601003001002097
:101D40000022CA808A8008804B88984205D008B15A
:101D5000C88003E08B800A8107E038B14B895B1CA7
:101D60009BB24B81322B01D908814A814880704750
:101D70002DE9F04100287DD001884C4CC1F30A01C7
:101D8000218042788378D20842EA4312C2F30A05DE
:101D900065808278C378920942EA83020379A5F5C7
:101DA000806542EA8322C2F30A06A680027943795B
:101DB000520842EAC312C2F30A03E380028AA6F57C
:101DC0008066C2F30A0222814779A3F58063BF09C6
:101DD000A7724779A2F58062C7F30117E772C78837
:101DE000A7810789E78147892782077BA774477BFB
:101DF000E774C089A082A1F5806020806580A680FC
:101E0000E380228100F058F82080B4F9020000F04D
:101E100053F86080B4F9040000F04EF8A080B4F9E3
:101E2000060000F049F8E080B4F9080000F044F83A
:101E300000B200EE100A2081B4F90200B8EEC02A08
:101E400000EE100AB4F90000F8EEC01A00EE100A15
:101E5000B4F90400B8EEC01A404200EE100AB4F91A
:101E60000600F8EEC00A00EE100A04F11C00B8EEFD
:101E7000C00A00E018E000F0ADFDA07C04F15401C0
:101E8000FFF75EFFE07C04F16001FFF759FFA08AD5
:101E900004F14801FFF754FFE08A0549401CE08245
:101EA000E07A087003490870BDE8F0814401002021
:101EB00080030020B001002010B5044600EE104A57
:101EC000B8EEC00A02F08AFD10EE100A02498842FC
:101ED00000DA0024204610BD0000A0417047000039
:101EE00030B50021254C01224FEA010001EB4103EE
:101EF00003EB011304EB8303B3F84850052D02D222
:101F000083F84A2001E083F84A00491CA3F84800FE
:101F10000429EBDB1A4C0021C1EBC10304EB431392
:101F2000B3F8DC50052D02D283F8DE2001E083F8FF
:101F3000DE00491CA3F8DC000229EDDB1149B1F8F1
:101F4000E030052B02D281F8E22001E081F8E200C6
:101F5000A1F8E0000C49CB8A052B01D20A7600E0FB
:101F60000876C88209498B8C052B02D281F826207D
:101F700001E081F82600888430BD000000040020C4
:101F800030050020F0060020440100200801002058
:101F900008B50020CDF80000FFF7A2FFC821684671
:101FA00004F006F9F8E790ED001AD1ED000A31EEE1
:101FB000601A40EE010AC1ED000A70470268086825
:101FC000121A00EE902AB8EEE01A00EE900AF8EE2F
:101FD000E00A40EE010ABDEEE00A81ED000A70471A
:101FE000F0B59FED180ADDE9057680ED000A80ED79
:101FF000010A80ED020A80ED030A80ED060A80EDF9
:10200000070A80ED080A002401EB840502EB840C2A
:10201000D5ED000A00EB8405C5ED0A0ADCED000AE7
:1020200003EB840CC5ED0E0ADCED000A641CC5ED63
:10203000120A042CE8DB80ED050AC0E9167680ED73
:10204000090AF0BD0000000010B504462DED028B1A
:1020500082B080EC020A30EE600A80ED020AD0ED18
:10206000030A70EE600AC0ED050A283003F00CF890
:1020700084ED060AD4ED050A94ED020A04F1380055
:1020800002F06EFE84ED070AD4ED050A94ED020A13
:1020900004F1480002F0D0FC84ED080A94ED020A35
:1020A000B5EEC00AF1EE10FA02DDF0EE400A01E0F2
:1020B000F1EE400A10EE900A2649884205DAD4ED86
:1020C000040A70EE800AC4ED040A02F087FC10EEE8
:1020D000100AB0F17C5F03DA9FED1F0A84ED020A5B
:1020E00094ED060AD4ED020A684660EE208A94ED6B
:1020F000070AD4ED040A20EE200A8DED000A94EDC3
:10210000080AD4ED050A20EE208A94ED170AB8EEED
:10211000400A00F08FF99DED000A04F1240038EE2A
:10212000800A30EE080A84ED090A94ED160AB8EE2A
:10213000400A00F0B3FB94ED020A84ED030A94ED2B
:10214000090A02B0BDEEC00ABDEC028B10EE100A07
:1021500010BD00000000A04100000000F0B5002309
:10216000012403270D6804FA03F21540954242D179
:10217000D0F800C05E0007FA06F52CEA050CC0F89E
:1021800000C091F804C0D0F800E00CFA06FC4CEA5C
:102190000E0CC0F800C091F804C0BCF1010F02D0D1
:1021A000BCF1020F1FD1D0F808C02CEA050CC0F812
:1021B00008C091F805C0D0F808E00CFA06FC4CEA1B
:1021C0000E0CC0F808C0D0F804C02CEA020CC0F80D
:1021D00004C0426891F806C00CFA03FC1FFA8CFC9C
:1021E00042EA0C024260C268AA43C260CA79C5686A
:1021F000B2402A43C2605B1C102BB3D3F0BD4B0727
:10220000DB0E9A40C90810B500EB8100016A0F246B
:102210009C40A1430162016A1143016210BD4183E8
:1022200070470183704742694A40426170470AB172
:10223000018370474183704700221146435C491C6B
:102240001A44C9B2D2B21129F8D3407C904201D1CC
:1022500001207047002070470448DFED050A90ED2B
:102260006A0AB8EEC00A30EE600A704730050020F6
:1022700000C073450648DFED070A9FED071A90ED91
:10228000320AB8EEC00A70EE600A80EE810A70472A
:10229000300500200040E7440000B641FEE70000A2
:1022A00010B54FF4E13000F05FFFBDE810401E2193
:1022B000014800F0ADBF0000E8000020044880EDB8
:1022C000060A80ED070AC0ED080AC0ED090A70474A
:1022D000B00100202DE9F04114468846074600254C
:1022E00086E0785D5A287CD17E1970785A287DD195
:1022F0003046FFF7A1FF002878D07919DFED3E0ABC
:102300008988338949BA0AB200EE102A5BBA758906
:10231000B8EEC01A1BB263F30F006DBA81EE200A4B
:1023200065F31F40B589F1886DBA2FB249BAF589B6
:1023300009B2000C6DBA2DB284ED000A00EE101A3D
:102340002E49B8EEC00A80EE201A00EE103AB8EE20
:10235000C00A84ED011A80EE201A00EE100A84ED06
:10236000021AB8EE401A81EE200A01EE107AF8EE59
:10237000C11A81EEA01A84ED050A84ED031A01EE5C
:10238000105AB8EEC11AC1EE201AC4ED041A307CFE
:1023900084F82200D4ED060A30EE601A11EE100A1D
:1023A000884202D9208C401C208470EEC00A10EEB6
:1023B000900A884202D9208C401E208484ED060AAF
:1023C000B4F920009FED0E1A00EE900AF8EEE00A34
:1023D00000EE810A84ED070AA08C401CA084012035
:1023E00000E003E084F82300BDE8F0816D1CADB28D
:1023F0004545FFF476AFF7E70000C842000096C3FA
:102400000000B443DFED0A1A00F11403C0ED001A16
:10241000C0ED011AC0ED021AC0ED031AC0ED041A96
:1024200083EC030AC0E90C12C0ED081A70470000E3
:1024300000000000D0ED000AF4EEC00AF1EE10FA40
:1024400001DD80ED000AD0ED000AB1EE400AF4EEA5
:10245000C00AF1EE10FA01D280ED000A70470000C8
:102460007CB50121402000F047FA01208DF80400DE
:1024700000208DF806008DF80700074D8DF8050047
:102480004FF40054694628460094FFF767FE214642
:102490002846FFF7C6FE7CBD001802402DE9FC5F10
:1024A0000121722000F028FA01208DF8040000209C
:1024B0008DF806008DF80700634E8DF80500102496
:1024C000694630460094FFF749FE202569463046AC
:1024D0000095FFF743FE012210213046FFF7A7FECB
:1024E000012220213046FFF7A2FE0220574E009025
:1024F00069463046FFF732FE0420009069463046B8
:10250000FFF72CFE0820009069463046FFF726FEB4
:10251000694630460094FFF721FE69463046009533
:10252000FFF71CFE4020009069463046FFF716FE7C
:102530008020009069463046FFF710FE240169466E
:1025400030460094FFF70AFE012202213046FFF7D1
:102550006EFE012204213046FFF769FE01220821A8
:102560003046FFF764FE012210213046FFF75FFE80
:10257000012220213046FFF75AFE01224021304639
:10258000FFF755FE012280213046FFF750FE012261
:1025900021463046FFF74BFEDFF8B4B064006946D1
:1025A00058460094FFF7DAFD6500694658460095E5
:1025B000FFF7D4FD4FF4006969465846CDF8009006
:1025C000FFF7CCFDE600694658460096FFF7C6FDCA
:1025D0004FF4005A69465846CDF800A0FFF7BEFDFB
:1025E0006701694658460097FFF7B8FD4FF4004869
:1025F00069465846CDF80080FFF7B0FD012221461C
:102600005846FFF714FE012229465846FFF70FFEF1
:10261000012249465846FFF70AFE01223146584634
:10262000FFF705FE012251465846FFF700FE012242
:1026300039465846FFF7FBFD012241465846FFF751
:10264000F6FDBDE8FC9F00000004024000180240B7
:102650000010024008B500204FF40074404D6600A1
:10266000A7004FF480584FF400594FF4804A4FF4BC
:10267000004B009021462846FFF7D1FD0521684612
:1026800003F096FD31462846FFF7C9FD0A2168464A
:1026900003F08EFD39462846FFF7C1FD0F2168463D
:1026A00003F086FD41462846FFF7B9FD1421684630
:1026B00003F07EFD49462846FFF7B1FD1921684623
:1026C00003F076FD51462846FFF7A9FD1E21684616
:1026D00003F06EFD59462846FFF7A1FD2321684609
:1026E00003F066FD21462846FFF79BFD052168465D
:1026F00003F05EFD31462846FFF793FD0A21684648
:1027000003F056FD39462846FFF78BFD0F2168463A
:1027100003F04EFD41462846FFF783FD142168462D
:1027200003F046FD49462846FFF77BFD1921684620
:1027300003F03EFD51462846FFF773FD1E21684613
:1027400003F036FD59462846FFF76BFD2321684606
:1027500003F02EFD40F24C41684603F029FD89E765
:1027600000100240C0EBC001C1EB80120D4810B553
:1027700030F9221000EB82000B4CD0F8D8208B1AD5
:10278000A34204DAB0F8CC305B1CA0F8CC30521A6B
:10279000A24204DAB0F8CC20521EA0F8CC20C0F837
:1027A000D81010BDF006002090E8FFFFC0EBC0017C
:1027B0000D4810B500EB41100C4CB0F90010D0F8EA
:1027C000D4208B1AA34204DAB0F8CC305B1CA0F8FA
:1027D000CC30521AA24204DAB0F8CC20521EA0F833
:1027E000CC20C0F8D41010BD3005002090E8FFFFC9
:1027F000034AC0EBC00002EB4010C0F8D010704795
:1028000030050020FEE7704708B58DF800008DF810
:1028100001108DF8022001208DF80300684600F0B9
:1028200001F808BD30B50F22C47801780123FCB14E
:10283000144C246801F1E02104F4E064C4F5E06480
:10284000C4F30724C4F10405E2404478AC40857821
:10285000154025432A0181F80024007800F01F016B
:102860008B404009800000F1E020C0F8003130BD0D
:1028700001F01F0083404809800000F1E020C0F80B
:10288000803130BD0CED00E0024908430249086088
:10289000704700000000FA050CED00E0D0ED000AE2
:1028A000F4EEC00AF1EE10FA01DD80ED000AD0ED81
:1028B000000AB1EE400AF4EEC00AF1EE10FA01D2BD
:1028C00080ED000A70470000DFED0A1A00F11803DE
:1028D000C0ED001AC0ED011AC0ED021AC0ED031AD6
:1028E000C0ED051A83EC030AC0E91612C0ED091AFF
:1028F0007047000000000000044A0029116801D060
:10290000014300E08143116070470000303802400D
:10291000044A0029116801D0014300E0814311609D
:102920007047000040380240044A0029116801D075
:10293000014300E0814311607047000044380240C9
:1029400070B5204A1168204C11F00C0104D01F4EC4
:10295000042903D0082903D004601BE0066019E0B5
:102960001849091F0B68C3F380550B6803F03F0338
:1029700015B1B6FBF3F301E0B4FBF3F30C6809689F
:10298000C4F388146343C1F30141491C4900B3FBFC
:10299000F1F1016011680F2303EA11110C4B5C5C2B
:1029A0000168E14041601468072505EA94241C5D34
:1029B00021FA04F48460126805EA52329A5CD1402C
:1029C000C16070BD083802400024F400001BB7004D
:1029D000BC00002010B504462DED048BB0EE608ADB
:1029E00080ED000A80ED018A80ED051AC0ED061A1F
:1029F00010EE100AFDF7DFFD41EC190B18EE100A7E
:102A0000FDF7D9FD41EC100BB0EE491AF0EE691A52
:102A100000F0FAFE51EC100BFDF7E0FDA0606069DC
:102A2000FDF7C9FD41EC180BA069FDF7C4FD41ECB1
:102A3000100BB0EE481AF0EE681A00F0E5FE51EC0B
:102A4000100BFDF7CBFD00EE900AC4ED070A94EDE4
:102A5000021A9FED3F0A61EE001A9FED3E1A20EE2A
:102A6000800A81EE812AC0EE010A84ED032AC4EDBA
:102A7000080A6068FDF79FFD9FED378B41EC100B56
:102A8000B0EE481AF0EE681A00F0B6FFB0EE402A39
:102A9000F0EE602AB0EE429AF0EE629A2068FDF7FE
:102AA0008AFD41EC100BB0EE481AF0EE681A00F007
:102AB000A3FF53EC192B51EC100BFDF7D5FCFDF7E0
:102AC0008DFD00EE100AF1EEC00AC4ED040AA06903
:102AD000FDF771FD41EC100BB0EE481AF0EE681AEC
:102AE00000F08AFFB0EE402AF0EE602AB0EE429A83
:102AF000F0EE629A6069FDF75EFD41EC100BB0EEFE
:102B0000481AF0EE681A00F077FF53EC192B51ECDD
:102B1000100BFDF7A9FCFDF761FD00EE900A1048CF
:102B2000B1EEE00A84ED090AE168814205DDD4EDE9
:102B3000040AF1EE600AC4ED040A216A814203DD51
:102B4000B1EE400A84ED090ABDEC048B10BD000013
:102B500000003443DB0F494000000000000000404B
:102B6000000034431CB500202E49019000900A68F3
:102B700042F480320A604FF4A0430A6802F4003243
:102B80000092019A521C0192009A12B9019A9A423B
:102B9000F3D10A68920342D50120009021484030C9
:102BA000026842F0805202601F48026842F44042CC
:102BB00002601C4A083213681360136843F4004330
:102BC0001360136843F4A0531360141F174B236062
:102BD0000B6843F080730B600B689B01FCD50168A8
:102BE00041F4803101604168C903FCD5016841F4BA
:102BF0000031016041688903FCD50D4940F2057040
:102C00000860106820F003001060106840F00200B7
:102C100010601068C0F381000228FAD11CBD00903A
:102C20001CBD000000380240007000400C5A4007F4
:102C3000003C024010B504F075F8012803D0BDE84F
:102C4000104003F059BD10BD124810B5016841F4A1
:102C5000700101601048016841F0010101600E4AF5
:102C600000210832116002680C4B1A400260031DFB
:102C70000B4A1A60026822F48022026006480C3077
:102C80000160FFF76FFF03494FF000608039086073
:102C900010BD000088ED00E000380240FFFFF6FEA6
:102CA000103000247047000010B54FF44070FFF75B
:102CB000EBFD03F0F5F8FEF7B5F9FFF7EFFBFFF7D3
:102CC000CFFBFFF72FF8FFF7EBFAC82003F038FA35
:102CD000FEF7F4F8FEF7A4FCFEF738FDFEF714FC4F
:102CE00000F0A2FBFEF70EFF0348006803F0B4FA01
:102CF000BDE8104003F012B90400002038B50020F0
:102D0000144C009040F22441204600F0FCFA0028C8
:102D10001FD0114D00212846FEF732FF2846FEF74E
:102D2000D2FF02280FD10E4800236A460B490068E3
:102D300003F012FF009830B10A4920040860BFF385
:102D40004F8FBFF36F8F01212846FEF719FFA08830
:102D5000208838BD0010014040640240300100204E
:102D60001400002004ED00E070B5054686B0012196
:102D70000220FFF7C1FD01211020FFF7D5FD022041
:102D80008DF804008DF8050001208DF80700402023
:102D90001D4E002400908DF8064069463046FFF72E
:102DA000DDF98020009069463046FFF7D7F9072209
:102DB00006213046FFF723FA072211463046FFF777
:102DC0001EFAADF80C40ADF80E40ADF81040ADF86D
:102DD00014400C200D4CADF81200029502A92046BB
:102DE00000F0C8FA002207212520FFF70DFD01227F
:102DF00040F22441204600F0A5FA0121204600F0CF
:102E000069FA06B070BD00000004024000100140E5
:102E100070B50D460646012190B08805FFF76CFDA0
:102E2000194C2046FEF7B6FE2046FEF745FF002867
:102E3000FAD14FF0006000900022CDE9032513483D
:102E4000CDE901060015CDE905208010CDE9082067
:102E50000002CDE90A0207920C920D9269462046C3
:102E60000E92FEF733FF01212046FEF789FE204631
:102E7000FEF722FF0128FAD1044801224021001F59
:102E800000F032FA10B070BD4064024004100140FE
:102E90000A4C0B4F86B04FF0FF354FF4806600238D
:102EA0002A466946606803F07BFC6846FEF760FFCF
:102EB00031463846FFF7B7F9F1E70000100000206F
:102EC0000010024038B50020154C009040F224411B
:102ED000204600F018FA002820D0124D0021284684
:102EE000FEF74EFE114800236A460F49006803F0C2
:102EF00033FE009830B10E49A0040860BFF34F8F35
:102F0000BFF36F8F08212846FEF70AFF01212846EC
:102F1000FEF736FE0248001D0088208838BD0000FC
:102F200000440040886002403C0000201C0000205B
:102F300004ED00E070B5054686B001210820FFF7DA
:102F4000DBFC01214804FFF7E3FC00248DF8064078
:102F500001208DF8070002208DF805008DF804008F
:102F600020201C4E009069463046FFF7F7F84020BD
:102F7000009069463046FFF7F1F8072205213046F8
:102F8000FFF73DF9072206213046FFF738F9ADF883
:102F90000C40ADF80E40ADF81040ADF814400C20D8
:102FA0000D4CADF81200029502A9204600F0E2F99E
:102FB000002208212620FFF727FC012240F22441AD
:102FC000204600F0BFF90121204600F083F906B049
:102FD00070BD0000000C02400044004070B50D467A
:102FE0000646012190B04805FFF786FC194C2046A3
:102FF000FEF7D0FD2046FEF75FFE0028FAD14FF025
:10300000006000900022CDE903251348CDE90106B8
:103010000015CDE905208010CDE908200002CDE99A
:103020000A0207920C920D92694620460E92FEF714
:103030004DFE01212046FEF7A3FD2046FEF73CFE93
:103040000128FAD1044801224021001F00F04CF968
:1030500010B070BD886002400444004086B0184D36
:10306000184C194EDFF864904FF0FF374FF480583A
:1030700000233A4602A9E86803F092FB207853281F
:1030800001D04E28F4D101AB6A4611A102A8FDF788
:1030900029F902280ED004AA0FA102A8FDF722F9EF
:1030A0000128E5D10498B042E2D141464846FFF7F5
:1030B000BAF8DDE7DDE90001084AFDF70DFFF4E7A6
:1030C000100000203C00002040420F000010024091
:1030D0005325642C256400004E25640068030020FD
:1030E0007047000038B50020194D009040F224418F
:1030F000284600F008F9002828D0164C0021204668
:10310000FEF73EFD2046FEF7DEFD1349C0F11E002E
:103110000023088012486A461049006803F01CFD2D
:10312000009838B10F494FF080500860BFF34F8FBF
:10313000BFF36F8F1E212046FEF7F2FD01212046CE
:10314000FEF71EFD0248001D0088288838BD0000DB
:10315000001401402864024000000020E800002024
:103160002400002004ED00E070B5054686B0012182
:103170000420FFF7C1FB01212020FFF7D5FB00242D
:103180008DF8064001208DF8070002208DF805001B
:103190008DF8040040201C4E009069463046FEF732
:1031A000DDFF8020009069463046FEF7D7FF0822F9
:1031B00006213046FFF723F8082207213046FFF7A3
:1031C0001EF8ADF80C40ADF80E40ADF81040ADF86B
:1031D00014400C200D4CADF81200029502A92046B7
:1031E00000F0C8F8002208214720FFF70DFB01225C
:1031F00040F22441204600F0A5F80121204600F0CD
:1032000069F806B070BD00000008024000140140DB
:1032100070B50D460646012190B08805FFF76CFB9E
:10322000194C2046FEF7B6FC2046FEF745FD002867
:10323000FAD14FF0206000900022CDE90325134819
:10324000CDE901060015CDE905208010CDE9082063
:103250000002CDE90A0207920C920D9269462046BF
:103260000E92FEF733FD01212046FEF789FC204631
:10327000FEF722FD0128FAD1044801224021001F57
:1032800000F032F810B070BD286402400414014010
:103290000C4C0D4DDFF8348088B04FF0FF364FF402
:1032A0000067002332466946606903F079FA084AEC
:1032B00029886846FFF70EF839464046FEF7B3FF07
:1032C000EFE7000010000020000000200010024086
:1032D000080100200029818902D041F4005101E059
:1032E00021F4005181817047002A828A01D00A436B
:1032F00000E08A43828270470246002012880A4218
:1033000000D00120704730B501F01F0201240025D4
:10331000C1F3421304FA02F2012B0FD0022B0FD09B
:10332000838A4FEA11210088134204FA01F400EA6B
:10333000040001D000B10125284630BD8389F0E7A3
:10334000038AEEE710B5C1F3421301F01F04012117
:10335000A140012B07D0022B07D01430002A0268AD
:1033600005D00A4304E00C30F8E71030F6E78A4352
:10337000026010BD7FB50446008A0D4620F440511E
:10338000E88808432082A08941F20C618843A9881B
:103390002A8911436A8902431143A181A08A20F43A
:1033A0004071A8890843A0826846FFF7C9FA1A4805
:1033B000844202D01948844201D1039800E0029867
:1033C000A189090400EBC00101EB0010296801D5B7
:1033D000490000E08900B0FBF1F26420B2FBF0F19B
:1033E00009010B096FF018056B4302EB8302A389F7
:1033F0001D044FF0320306D503EBC202B2FBF0F01E
:1034000000F0070005E003EB0212B2FBF0F000F061
:103410000F00084320817FBD0010014000140140CF
:10342000C1F30801818070477CB514210022084651
:1034300003F078F9164C0425002360602046CDE99E
:103440000050802213A1184803F040FC0A210022FA
:10345000084603F067F9E06004F10800CDE9005088
:103460000023802211A1164803F030FC1E21002207
:10347000084603F057F9606104F11000CDE90050EF
:10348000002380220FA1144803F020FC7CBD000023
:10349000100000205553415254315F5265636569F5
:1034A00076655461736B0000912E000855534152AC
:1034B00054325F526563656976655461736B0000D1
:1034C0005D3000085553415254365F52656365695B
:1034D00076655461736B000091320008FEE70000CE
:1034E0000FB4054B10B503A9044A029801F09AF9EC
:1034F00010BC5DF814FB0000154A0008E000002035
:1035000003B401984100009850EAC12018BF04207C
:103510004A0D18BF40F0010040F2FF72B2EB515F5C
:1035200008BF40F00200012808BF052002B0704724
:1035300070B59B482DED020B2DED068B079D25F0F8
:103540000044A04218DC9748844202DC0AD1069865
:1035500040B19DED060BBDEC068B02B0BDE870409E
:1035600001F006B9002DCCBF9FED8F0B9FED900BA6
:10357000BDEC068B02B070BD8F48A04215DD8F48B0
:10358000A042D8BF4FF0FF3458DD9DED060B51EC43
:10359000100BFFF7B5FF042808BF01F01DF99DEDE2
:1035A000060BBDEC068B02B070BD9DED060B51EC19
:1035B000100B01F023FACDE9060181489FED828BC3
:1035C000A0423CDD8248A0421FDD00249FED82AB7B
:1035D0009DED060B53EC1A2B51EC100BFCF744FF3E
:1035E0009DED060B41EC190B53EC1A2B51EC100B13
:1035F000FDF71EF953EC182BFCF7D7FF53EC192BF2
:10360000FDF788F9CDE9060149E09DED060B01249F
:1036100053EC182B51EC100BFCF726FF9DED060B1D
:1036200041EC190B53EC182B51EC100BFCF7BDFFC0
:1036300053EC192BFDF76EF9CDE906012FE0684830
:10364000A0421FDD02249FED689B9DED060B53EC0D
:10365000192B51EC100BFDF7EBF853EC182BFCF782
:1036600003FF9DED060B41EC180B53EC192B51ECAD
:10367000100BFCF79AFF53EC182BFDF74BF9CDE933
:1036800006010CE09DED060B032453EC102B9FED7F
:10369000580B51EC100BFDF73DF9CDE906019DEDFE
:1036A000060B53EC102B51EC100BFDF7C1F841EC5D
:1036B000180B53EC182BFDF7BBF841EC190B4E48D7
:1036C0000621B0EE490AF0EE690A784400F0BCFF2A
:1036D00053EC182B51EC100BFDF7AAF841EC180B2A
:1036E0004648B0EE490AF0EE690A0521784400F038
:1036F000ABFF53EC192B51EC100BFDF799F841EC93
:10370000100B51EC180B53EC102B002C0EDAFCF7BD
:10371000ABFE9DED061B53EC112BFDF789F89DEDDB
:10372000061B53EC112BFCF743FF35E0FCF79CFE26
:103730009DED061B53EC112BFDF77AF841EC100BB5
:103740002F48784400EBC40090ED001B51EC100BA7
:1037500053EC112BFCF729FF9DED061B53EC112BAD
:10376000FCF723FF41EC100B2648784400EBC40023
:1037700090ED001B51EC100B53EC112BFCF718FFD4
:1037800041EC100B002DA2BFBDEC068B02B070BD4A
:1037900051EC100B81F0004141EC100B01E70000EF
:1037A000000010440000F07F182D4454FB21F93F25
:1037B000182D4454FB21F9BF0000DC3F0000203EDF
:1037C0000000F33F00000000000000000000F03F98
:1037D0000000E63F00000000000000000000004084
:1037E0000080034000000000000000000000F83FDF
:1037F000000000000000F0BF8A3F0000403F0000D2
:10380000CA3E0000823E000070B56B4E2DED040BE9
:103810002DED028B82B0DDF81CC0DDE905235C4292
:103820002CF000411C4341EAD474049D22F0004076
:10383000B44205D86C422C4340EAD474B4420BD94C
:103840009DED061B9DED040B02B0BDEC028B04B098
:10385000BDE8704000F096BFACF14054A4F17F6425
:103860001C430BD0022404EAAC7444EAD27405432E
:103870009FED538B9FED542B07D015E09DED040B6E
:1038800051EC100B01F0B2F842E0002C11BF012CFA
:103890009DED040B02B0BDEC028B04BF04B070BD03
:1038A000022C38D0032C3BD00B439FED491B9FEDDE
:1038B0004A0B0AD0B14218D1B04209D121F080415F
:1038C00020F08040079105900FE0002A15DA10E003
:1038D000434B7B44002C08BF93ED000B0DD0012C13
:1038E00010D0022C17D0032C1AD0B0421DD1002AC0
:1038F00003DAB0EE410AF0EE610A02B0BDEC028BD1
:1039000004B070BD93ED000B51EC100B81F0004141
:1039100041EC100BF1E7B0EE480AF0EE680AECE774
:10392000B0EE420AF0EE620AE7E7401A00153C28C2
:10393000C8BF8DED000B19DCBCF1000FBEBF10F14C
:103940003C0F9FED290B8DED000B0FDB9DED060B62
:1039500053EC102B9DED040B51EC100BFCF7DAFF30
:1039600001F04CF801F042F8CDE90001002C08BF4D
:103970009DED000BC1D0012C10D0022C9FED1C0B33
:1039800053EC102B9DED000B51EC100B0DD0FCF700
:103990000CFE53EC182BFCF708FEB9E7019880F0F9
:1039A000004001909DED000BA7E7FCF7FEFD53ECF6
:1039B000182BFCF7FDFDABE70000F07F00000000D6
:1039C000182D4454FB210940182D4454FB2109C0F3
:1039D000182D4454FB21F9BF182D4454FB21F93F05
:1039E000B23D0000000000000000000000000000E8
:1039F000075C143326A6A13C2DE9F04D2DED040BF8
:103A00002DED0E8B96B0DDE92550279CDDF890A0BA
:103A100025F0004624F00048BAF1000F14BF012140
:103A2000002101EB4502FC4953184A1093422AD366
:103A3000002814BF0123002303EB44030B44F74980
:103A40008B4220D358EA00019FEDF59B76D0DFF83A
:103A5000D8B35D4503D1BAF1000F05D188E0BAF1C2
:103A6000000F08BF002100D0012101EB450111F535
:103A7000001F08D8002814BF0121002101EB4401D8
:103A800011F5001F0BD99DED261B9DED240B16B0E3
:103A9000BDEC0E8B04B0BDE8F04D00F073BE002706
:103AA000002DBCBFE149884521DAE1498845A8BF1E
:103AB00002271CDAC3451ADCDE4901EB2851142920
:103AC00008DDC1F1340220FA02F101FA02F2824269
:103AD0000DD108E058B9C1F1140228FA02F101FA37
:103AE00002F2424503D101F00101C1F1020756EA99
:103AF0000A0124D1002C22DA002D18BF022F01D098
:103B0000012F0AD0022000F087FE16B0BDEC0E8B0C
:103B100004B0BDE8F04D00F013BE022000F07CFEC2
:103B200000F00EFE51EC100B81F0004141EC100B47
:103B300016B0BDEC0E8B04B0BDE8F08D18E09FED23
:103B4000BEAB9FEDBF8B002871D1B848804522D114
:103B500005F1804010F5801008BFBAF1000F07D0C2
:103B6000B3450ADC002CA8BF9DED260BE0DA0DE082
:103B7000B0EE490AF0EE690ADAE7002C06DA9DEDAC
:103B8000260B51EC100B81F000416FE0AE487844F9
:103B900090ED000BCCE7D8454DD1002C48DA2EB182
:103BA00086423AD1BAF1000F42D126E0BAF1000FB5
:103BB00013D0022000F030FE00F0FEFD8DED020B70
:103BC0009DED240B8DED000B10EE900A039961F32F
:103BD0001E0003909DED020BAAE78DED02AB9DED5B
:103BE000240B1AEE901A10EE900A8DED000B61F383
:103BF0001E0003909DED020B9AE78DED028B9DED6B
:103C0000240B18EE901A10EE900A8DED000B61F364
:103C10001E0003909DED020B8AE709DA9DED240B4F
:103C200051EC190B53EC102BFCF774FE1EE020E056
:103C30009DED240B7CE786421BDAB4F1804F0DD05A
:103C4000A4F10050B0F1FF5013D1002D11DB9DED18
:103C5000240B51EC100B02F0A7F807E09DED240BAC
:103C600053EC102B51EC100B00F0C2BC41EC100BCC
:103C70005EE79DED240B51EC100B00F0BFFEBAF196
:103C8000000FCDE90E0142D19FED710B46B3A6F1B5
:103C9000E040B0F17F600CD05E4538D1002D00DAF5
:103CA000A7B3022F0CBF01204FF0FF30FCF7B8FE86
:103CB000DCE7002D01DD002C0DDA002D01DD002CEC
:103CC0001FDB002D16DA002C14DB012F08BF9FED3F
:103CD000620B3FF42DAFB0EE4A0AF0EE6A0A27E716
:103CE000022F18BF002D0CD0012F0AD1002DFFF696
:103CF0001FAF06E0002DB8BF002C08DA012F3FF4FB
:103D000017AFB0EE480AF0EE680A11E71BE0012099
:103D100000EBE57050EA070115D0791EB0EE498A34
:103D2000F0EE698A084308BF9FED4D8B4E48002591
:103D3000804570DD4D494E48884514DDB0420DDBAD
:103D4000002C19DB2FE0012000F066FD16B0BDEC61
:103D50000E8B04B0BDE8F04D00F01EBDB34502DC93
:103D6000002C09DC1FE0864202DA002C1BDA03E09B
:103D70005E452BDD002C16DD022000F04DFD00F02D
:103D80001BFD8DED020B53EC1A2B51EC180BFCF7BD
:103D90004FFDCDE900010399019861F31E000390E6
:103DA0009DED020BC4E6022000F036FD00F014FD8C
:103DB00010EE901A18EE900A8DED020B8DED008B2F
:103DC00061F31E0003909DED020BB1E69DED0E0B1D
:103DD00053EC192B51EC100BFCF7E7FB9FED260B76
:103DE000CDE9080153EC102B9DED080B51EC100BA5
:103DF000FCF71EFD9FED221B53EC112BFCF7D8FBAB
:103E00009DED081B53EC112BFCF712FD9FED1E1BC3
:103E100053EC112B3CE08CE0FFFF1F00FFFF0F0075
:103E2000000000000000F03F0000F03F0000F07FC5
:103E30000000404301FCFFFF000000000000F07F95
:103E40000000000000000000F63A00000000000042
:103E50000000000000000080000000000000F0FFF3
:103E6000000000000000F0BF0000E0410000F0434F
:103E7000FFFFEF3F00000000000000000000D03F07
:103E8000555555555555D53F000000000000E03F01
:103E9000FCF78EFB9DED080B41EC1A0B53EC102B3D
:103EA00051EC100BFCF7C4FC53EC1A2BFCF7C0FCD4
:103EB00041EC1A0B9FEDFE0B53EC102B9DED080B04
:103EC00051EC100BFCF7B4FC41EC1B0B9FEDFA0B13
:103ED00051EC1A0B53EC102BFCF7AAFC41EC1A0B1B
:103EE0009FEDF70B53EC102B9DED080B51EC100BD5
:103EF000FCF79EFC53EC1A2BFCF757FB41EC1A0B1A
:103F000051EC1B0B53EC1A2BFCF7AEFA0690CDE9E3
:103F100006519DED060B53EC1B2B51EC100BFCF7DF
:103F200044FB53EC1A2BFCF743FB41EC100B00F065
:103F3000A1B90020B6F5801F0EDA9FEDE30B53EC1C
:103F4000102B9DED0E0B51EC100BFCF771FCCDE925
:103F50000E016FF034000E4600EB2650A0F2FF3742
:103F6000C6F31300DA4940F07F6646F040568842B7
:103F7000D8BF002408DDD7498142C8BF012403DC33
:103F80000024A6F580167F1CD348784400EBC400BB
:103F90000F9690ED00CB9DED0E0B53EC1C2B51ECCE
:103FA000100BFCF702FB9DED0E0B41EC1B0B53ECD1
:103FB0001C2B51EC100BFCF757FA41EC100B51EC99
:103FC000190B53EC102BFCF7A5FC41EC1D0B51EC2D
:103FD0001B0B53EC1D2BFCF72BFC41EC1A0BBF48C1
:103FE0008DED10AB7844109590ED000B4FF0005024
:103FF00040EA660000EB84408DED080B00F50020E0
:1040000009909DED080B53EC1C2B51EC100BFCF7A9
:10401000CCFA9DED0E1B53EC112BFCF7C9FA41ECC9
:10402000100B53EC102B9DED100B51EC100BFCF70B
:10403000FFFB9DED080B41EC1C0B53EC102B9DED91
:10404000100B51EC100BFCF7F3FB53EC1B2BFCF7A4
:10405000AFFA53EC1C2BFCF7A8FA53EC1D2BFCF722
:10406000E7FB41EC1C0B53EC1A2B51EC1A0BFCF741
:10407000DFFB41EC1B0B9A480621B0EE4B0AF0EE39
:104080006B0A784400F0E0FAB0EE401AF0EE601AE5
:10409000B0EE41DAF0EE61DA53EC1B2B51EC1B0B66
:1040A000FCF7C6FB53EC1D2BFCF7C2FB9DED100B80
:1040B00041EC1B0B53EC1A2B51EC100BFCF7D4F911
:1040C00053EC1C2BFCF7B4FB53EC1B2BFCF7CCF98B
:1040D0009DED100B41EC1B0B53EC102B51EC100B16
:1040E000FCF7A6FB41EC1D0B9FED7FEB53EC1E2B69
:1040F000FCF7BAF953EC1B2BFCF7B6F90890CDE9A5
:1041000008519DED080B53EC1E2B51EC100BFCF7E6
:104110004CFA53EC1D2BFCF748FA53EC1B2BFCF725
:1041200047FA9DED080B41EC1D0B53EC102B9DED58
:10413000100B51EC100BFCF77BFB41EC1B0B53EC11
:104140001A2B51EC1D0BFCF773FB9DED080B41EC9A
:104150001A0B53EC102B51EC1C0BFCF769FB53ECC6
:104160001A2BFCF781F941EC1A0B51EC1B0B53ECA9
:104170001A2BFCF779F90C90CDE90C519DED0C0B45
:1041800053EC1B2B51EC100BFCF70FFA53EC1A2BD2
:10419000FCF70EFA41EC1B0B9FED550B53EC102B6B
:1041A0009DED0C0B51EC100BFCF742FB41EC1A0B94
:1041B0009FED510B51EC1B0B53EC102BFCF738FB14
:1041C00041EC1B0B9FED4E0B53EC102B9DED0C0B9C
:1041D00051EC100BFCF72CFB53EC1B2BFCF744F9B8
:1041E00041EC100B4848784400EBC40090ED001BF4
:1041F00051EC100B53EC112BFCF736F941EC1B0B77
:104200003846FCF70DFCCDE9080153EC1B2B51ECB3
:104210001A0BFCF729F941EC100B3C48784400EBF1
:10422000C40090ED00CB51EC100B53EC1C2BFCF7B1
:104230001BF99DED081B53EC112BFCF715F90690AB
:10424000CDE906519DED080B53EC102B9DED060BAF
:1042500051EC100BFCF7A9F953EC1C2BFCF7A5F95A
:1042600053EC1A2BFCF7A1F953EC1B2BFCF7A0F92C
:1042700041EC100B9DED261B53EC102B8DED001B1C
:1042800000959DED260B51EC100BFCF7D1FA9DED3E
:10429000000B41EC1A0B53EC102B9DED260B51EC4F
:1042A000100BFCF782F99DED061B53EC112B2FE050
:1042B000000000604715F73FFE822B654715F73F6A
:1042C00044DF5DF80BAE543E0000000000004043A8
:1042D0008E9803007AB60B00DA350000A036000095
:1042E000123500000000000000000000000008403F
:1042F000000000E009C7EE3FFD033ADC09C7EE3FCE
:10430000F5015B14E02F3EBE9E33000058330000E1
:10431000FCF78EFA53EC1A2BFCF7A6F89DED060B72
:1043200041EC1A0B53EC102B9DED000B51EC100BD4
:10433000FCF77EFACDE90C019DED0C0B51EC1A0B4C
:1043400053EC102BFCF790F8CDE902010C46AA497A
:104350008C422FDB611A084318D19DED0C0B53ECF6
:10436000102B9DED020B51EC100BFCF71EF941ECEC
:104370001B0B9FEDA30B51EC1A0B53EC102BFCF70E
:1043800073F853EC1B2BFCF75DFB2DD2022000F0E1
:1043900043FA00F011FA10EE901A18EE900A8DED23
:1043A000020B8DED008B61F31E0003909DED020B5F
:1043B000FFF7BEBB944A24F00041914214D39349C5
:1043C000214408437FF4EFAC9DED0C0B53EC102B14
:1043D0009DED020B51EC100BFCF7E7F853EC1A2B98
:1043E000FCF730FB7FF6DFAC24F000408849894AB7
:1043F000002601EB205182422BDA481C4FF4801139
:1044000021FA00F02044844AC0F30A517A44A1F210
:10441000FF3192ED000B814A8DED080BCA4020EA76
:104420000202C0F3130040F48010C1F1140120FA1D
:1044300001F60992002CB8BF76429DED080B53ECB3
:10444000102B9DED0C0B51EC100BFCF7AEF8CDE9E9
:104450000C019DED0C0B51EC1A0B53EC102BFCF7DF
:1044600003F89FED6F0B0890CDE9085153EC102B2A
:104470009DED080B51EC100BFCF7DAF941EC1B0B2E
:104480009FED690B53EC102B9DED080B51EC100BBD
:10449000FCF7CEF99DED0C0B41EC1C0B53EC102BF3
:1044A0009DED080B51EC100BFCF77FF853EC1A2B29
:1044B000FCF77EF89FED5E1B53EC112BFCF7B8F96F
:1044C00053EC1C2BFBF7D0FF41EC1A0B51EC1B0BF0
:1044D00053EC1A2BFBF7C8FFCDE902019DED020B4F
:1044E00053EC1B2B51EC100BFCF75FF853EC1A2B21
:1044F000FCF75EF89DED020B41EC1A0B53EC102B10
:1045000051EC100BFCF794F9CDE908014A489DEDF8
:10451000080B0521784400F097F89DED081B51EC3D
:10452000100B53EC112BFCF783F99DED021B53ECA0
:10453000112BFCF73DF8CDE906019DED020B53EC84
:104540001A2B51EC100BFCF773F953EC1A2BFBF7F9
:104550008BFF9FED3B0B41EC1A0B53EC102B9DEDA9
:10456000060B51EC100BFCF720F89DED060B41EC0F
:104570001B0B53EC102B9DED020B51EC100BFCF7B9
:1045800057F953EC1B2BFCF7C5F953EC1A2BFCF72E
:104590000CF89DED021B53EC112BFCF706F853ECC5
:1045A000192BFCF705F8CDE9020101EB06500115C6
:1045B0000029C8BF039015DC9DED020B324651EC7B
:1045C000100BFCF716FAFEF79BFF042808BF00F05B
:1045D00003F932469DED020B51EC100BFCF709FA82
:1045E000CDE902019DED020B51EC180B53EC102BA1
:1045F000FCF71EF9FFF73ABB0000904000000000F6
:10460000FE822B654715973C00CC904000346F3FED
:1046100001FCFFFF0000E03F78320000FFFF0F00C9
:1046200000000000432EE63F396CA80C615C20BE00
:10463000EF39FAFE422EE63FB030000000000000E5
:10464000000000000000004070B504462DED028B14
:104650004D1E00EBC500B0EE408AF0EE608A90ED92
:10466000000B35F0060017D053EC182B51EC100B53
:10467000FCF7DEF841EC100B6D1E04EBC50090ED6D
:10468000001B51EC100B53EC112BFBF7EDFE41EC32
:10469000100B35F00600E7D1022D36D0042D1CD0CA
:1046A000062D1CBFBDEC028B70BD53EC182B51ECDA
:1046B000100BFCF7BDF894ED0A1B53EC112BFBF724
:1046C000D3FE53EC182BFCF7B3F894ED081B53EC16
:1046D000112BFBF7C9FE41EC100B53EC182B51ECDE
:1046E000100BFCF7A5F894ED061B53EC112BFBF710
:1046F000BBFE53EC182BFCF79BF894ED040B53EC2A
:10470000102BFBF7B1FE41EC100B53EC182B51ECC6
:10471000100BFCF78DF894ED021B53EC112BFBF7FB
:10472000A3FE53EC182BFCF783F894ED001B53EC1D
:10473000112BFBF799FEBDEC028B41EC100B70BD09
:104740009FED070B10B553EC102B9FED070B51ECB1
:10475000100BFCF7DFF841EC100B10BD000000005F
:104760000000000000000000000000000000F03F1A
:1047700010B553EC102B51EC100BFBF775FE41EC10
:10478000100B10BD10B553EC112B51EC100BFBF7B7
:104790006BFE41EC100B10BD9FED050B10B553ECFB
:1047A000102B51EC100BFCF7B5F841EC100B10BDC1
:1047B00000000000000000009FED050B10B553EC59
:1047C000102B51EC100BFCF733F841EC100B10BD23
:1047D00000000000000000709FED050B10B553ECC9
:1047E000102B51EC100BFCF723F841EC100B10BD13
:1047F000000000000000001002E008C8121F08C1FD
:10480000002AFAD170477047002001E001C1121F51
:10481000002AFBD170470000014908607047000082
:10482000E40000202DE9FF4F8BB09A460F46054665
:10483000002606E025280BD052460D9990476D1CA6
:10484000761C28780028F5D10FB03046BDE8F08FEF
:104850000024A0460122604900E0044315F8013F0E
:10486000203B02FA03F00842F7D128782E2817D10E
:1048700015F8010F44F004042A280ED06FF02F021F
:104880002878A0F1300109290AD808EB880102EB49
:10489000410100EB01086D1CF2E757F8048B6D1C19
:1048A000287869283ED006DC0028CDD063280BD0BC
:1048B000642804D136E0732810D075284BD05246B6
:1048C0000D999047761C85E017F8040B8DF80000D1
:1048D00000208DF80100E946012003E057F8049B11
:1048E0004FF0FF3061074FF0000401D40AE0641C70
:1048F00044450DDA8442FADB19F804100029F6D198
:1049000006E0641C8442FCDB19F804100029F8D18D
:10491000264404E019F8010B52460D999047641E95
:10492000F8D257E001CF4FF00A0B002802DA4042DC
:104930002D2102E0210504D52B218DF82410012121
:1049400003E0E10705D02021F7E70DF120090891E8
:104950000CE00021F9E701CF4FF00A0BF9E75946C7
:10496000FBF758FE01F1300209F8012D0028F6D1BD
:10497000ADEB090000F1200B600701D44FF00108F6
:10498000D84502DDA8EB0B0000E0002080460024A3
:1049900006E009A85246005D0D999047641C761CFC
:1049A00008988442F5DB04E0302052460D99904788
:1049B000761CB8F10001A8F10108F5DC05E019F852
:1049C000010B52460D999047761CBBF10001ABF1EB
:1049D000010BF4DC6D1C34E709280100B5EEC00AB8
:1049E000F1EE10FA01D2B1EE400A704710B541EC79
:1049F000100BFEF79DFD51EC100B10BD82B0CDE900
:104A0000000121F0004001909DED000B02B051EC3F
:104A1000100B704770B5074D0446C1B22868FEF709
:104A2000FFFC80212868FEF767FC0028F9D02046AB
:104A300070BD00004400002010B504462DED068B2B
:104A4000CCB0B0EE608AF0EE408A1C22C2493FA88A
:104A5000FBF724FCC0491C221C3138A8FBF71EFCC4
:104A6000D4ED00AA94ED01AAD4ED029A94ED039A34
:104A70000020B9490090019002900390C42238317F
:104A800007A8FBF70BFC9DED3F1ADFEDB41AF7EE1C
:104A9000000AB4EEE81AF1EE10FA02DDB0EE600A98
:104AA00011E0B4EEE81AF1EE10FA0ED89DED400ACE
:104AB000B4EEE80AF1EE10FA07DD30EE411A30EEFE
:104AC000682A82EE010A00216FE09DED401AB4EEE3
:104AD000E81AF1EE10FA0ED89DED410AB4EEE80A9C
:104AE000F1EE10FA07DD30EE411A30EE682A0121AE
:104AF00082EE010A59E09DED411AB4EEE81AF1EE9A
:104B000010FA0ED89DED420AB4EEE80AF1EE10FA62
:104B100007DD30EE411A30EE682A022182EE010AEA
:104B200043E09DED421AB4EEE81AF1EE10FA0ED809
:104B30009DED430AB4EEE80AF1EE10FA07DD30EE1F
:104B4000411A30EE682A032182EE010A2DE09DED24
:104B5000431AB4EEE81AF1EE10FA0ED89DED440AAD
:104B6000B4EEE80AF1EE10FA07DD30EE411A30EE4D
:104B7000682A042182EE010A17E09DED441AB4EE82
:104B8000E81AF1EE10FA0DD89DED450AB4EEE80AE8
:104B9000F1EE10FA06DD30EE411A30EE682A82EEB0
:104BA000010A01E0B0EE610A0521DDED382A30EEA0
:104BB000C02AB0EE401AF4EEC82AF1EE10FA02DD77
:104BC000B0EE600A11E0F4EEC82AF1EE10FA0ED849
:104BD0009DED390AB4EEC80AF1EE10FA07DD70EE69
:104BE000621A70EE482A82EEA10A00206FE0DDED25
:104BF000392AF4EEC82AF1EE10FA0ED89DED3A0AE1
:104C0000B4EEC80AF1EE10FA07DD70EE621A70EE2B
:104C1000482A012082EEA10A59E0DDED3A2AF4EE9D
:104C2000C82AF1EE10FA0ED89DED3B0AB4EEC80A80
:104C3000F1EE10FA07DD70EE621A70EE482A0220DB
:104C400082EEA10A43E0DDED3B2AF4EEC82AF1EE44
:104C500010FA0ED89DED3C0AB4EEC80AF1EE10FA37
:104C600007DD70EE621A70EE482A032082EEA10A78
:104C70002DE0DDED3C2AF4EEC82AF1EE10FA0ED854
:104C80009DED3D0AB4EEC80AF1EE10FA07DD70EEB4
:104C9000621A70EE482A042082EEA10A17E0DDEDC8
:104CA0003D2AF4EEC82AF1EE10FA0DD89DED3E0A29
:104CB000B4EEC80AF1EE10FA06DD70EE621A70EE7C
:104CC000482A82EEA10A01E0B0EE610A0520C1EB9C
:104CD000C10207A901EB8202694612F8203002EBFB
:104CE000800001EB830370EEC00AD3ED001A41EEA1
:104CF000001AC3ED001A027901EB8202D2ED001A0C
:104D000041EE201AC2ED001A027F01EB820292ED01
:104D1000001A02EE001A82ED001A90F8200001EB52
:104D2000800090ED000A02EE200A80ED000A9DED61
:104D3000000ADDED010A20EE2A0A00EE8A0ADDED06
:104D4000020A00EEA90ADDED030A4CB000EE890A62
:104D5000BDEC068B10BD0000687400080000000068
:104D600010B504462DED068BCCB0B0EE608AF0EEA7
:104D7000408A1C22C2493FA8FBF790FAC0491C2276
:104D80001C3138A8FBF78AFAD4ED00AA94ED01AAE9
:104D9000D4ED029A94ED039A0020B9490090019055
:104DA00002900390C422383107A8FBF777FA9DEDF3
:104DB0003F1ADFEDB41AF7EE000AB4EEE81AF1EE8E
:104DC00010FA02DDB0EE600A11E0B4EEE81AF1EE7E
:104DD00010FA0ED89DED400AB4EEE80AF1EE10FA92
:104DE00007DD30EE411A30EE682A82EE010A00211A
:104DF0006FE09DED401AB4EEE81AF1EE10FA0ED80D
:104E00009DED410AB4EEE80AF1EE10FA07DD30EE4E
:104E1000411A30EE682A012182EE010A59E09DED27
:104E2000411AB4EEE81AF1EE10FA0ED89DED420ADE
:104E3000B4EEE80AF1EE10FA07DD30EE411A30EE7A
:104E4000682A022182EE010A43E09DED421AB4EE87
:104E5000E81AF1EE10FA0ED89DED430AB4EEE80A16
:104E6000F1EE10FA07DD30EE411A30EE682A032128
:104E700082EE010A2DE09DED431AB4EEE81AF1EE40
:104E800010FA0ED89DED440AB4EEE80AF1EE10FADD
:104E900007DD30EE411A30EE682A042182EE010A65
:104EA00017E09DED441AB4EEE81AF1EE10FA0DD8B1
:104EB0009DED450AB4EEE80AF1EE10FA06DD30EE9B
:104EC000411A30EE682A82EE010A01E0B0EE610A72
:104ED0000521DDED382A30EEC02AB0EE401AF4EE9E
:104EE000C82AF1EE10FA02DDB0EE600A11E0F4EE2D
:104EF000C82AF1EE10FA0ED89DED390AB4EEC80AB0
:104F0000F1EE10FA07DD70EE621A70EE482A82EEBA
:104F1000A10A00206FE0DDED392AF4EEC82AF1EE97
:104F200010FA0ED89DED3A0AB4EEC80AF1EE10FA66
:104F300007DD70EE621A70EE482A012082EEA10AA7
:104F400059E0DDED3A2AF4EEC82AF1EE10FA0ED857
:104F50009DED3B0AB4EEC80AF1EE10FA07DD70EEE3
:104F6000621A70EE482A022082EEA10A43E0DDEDCB
:104F70003B2AF4EEC82AF1EE10FA0ED89DED3C0A59
:104F8000B4EEC80AF1EE10FA07DD70EE621A70EEA8
:104F9000482A032082EEA10A2DE0DDED3C2AF4EE42
:104FA000C82AF1EE10FA0ED89DED3D0AB4EEC80AFB
:104FB000F1EE10FA07DD70EE621A70EE482A042056
:104FC00082EEA10A17E0DDED3D2AF4EEC82AF1EEEB
:104FD00010FA0DD89DED3E0AB4EEC80AF1EE10FAB3
:104FE00006DD70EE621A70EE482A82EEA10A01E038
:104FF000B0EE610A0520C1EBC10207A901EB8202F4
:10500000694612F8203002EB800001EB830370EE5A
:10501000C00AD3ED001A41EE001AC3ED001A02795E
:1050200001EB8202D2ED001A41EE201AC2ED001A05
:10503000027F01EB820292ED001A02EE001A82ED6D
:10504000001A90F8200001EB800090ED000A02EEBB
:10505000200A80ED000A9DED000ADDED010A20EE38
:105060002A0A00EE8A0ADDED020A00EEA90ADDED49
:10507000030A4CB000EE890ABDEC068B10BD00009F
:105080006C7300080000000010B504462DED068B7F
:10509000CCB0B0EE608AF0EE408A1C22C2493FA834
:1050A000FBF7FCF8C0491C221C3138A8FBF7F6F8C6
:1050B000D4ED00AA94ED01AAD4ED029A94ED039ADE
:1050C0000020B9490090019002900390C422383129
:1050D00007A8FBF7E3F89DED3F1ADFEDB41AF7EEF2
:1050E000000AB4EEE81AF1EE10FA02DDB0EE600A42
:1050F00011E0B4EEE81AF1EE10FA0ED89DED400A78
:10510000B4EEE80AF1EE10FA07DD30EE411A30EEA7
:10511000682A82EE010A00216FE09DED401AB4EE8C
:10512000E81AF1EE10FA0ED89DED410AB4EEE80A45
:10513000F1EE10FA07DD30EE411A30EE682A012157
:1051400082EE010A59E09DED411AB4EEE81AF1EE43
:1051500010FA0ED89DED420AB4EEE80AF1EE10FA0C
:1051600007DD30EE411A30EE682A022182EE010A94
:1051700043E09DED421AB4EEE81AF1EE10FA0ED8B3
:105180009DED430AB4EEE80AF1EE10FA07DD30EEC9
:10519000411A30EE682A032182EE010A2DE09DEDCE
:1051A000431AB4EEE81AF1EE10FA0ED89DED440A57
:1051B000B4EEE80AF1EE10FA07DD30EE411A30EEF7
:1051C000682A042182EE010A17E09DED441AB4EE2C
:1051D000E81AF1EE10FA0DD89DED450AB4EEE80A92
:1051E000F1EE10FA06DD30EE411A30EE682A82EE5A
:1051F000010A01E0B0EE610A0521DDED382A30EE4A
:10520000C02AB0EE401AF4EEC82AF1EE10FA02DD20
:10521000B0EE600A11E0F4EEC82AF1EE10FA0ED8F2
:105220009DED390AB4EEC80AF1EE10FA07DD70EE12
:10523000621A70EE482A82EEA10A00206FE0DDEDCE
:10524000392AF4EEC82AF1EE10FA0ED89DED3A0A8A
:10525000B4EEC80AF1EE10FA07DD70EE621A70EED5
:10526000482A012082EEA10A59E0DDED3A2AF4EE47
:10527000C82AF1EE10FA0ED89DED3B0AB4EEC80A2A
:10528000F1EE10FA07DD70EE621A70EE482A022085
:1052900082EEA10A43E0DDED3B2AF4EEC82AF1EEEE
:1052A00010FA0ED89DED3C0AB4EEC80AF1EE10FAE1
:1052B00007DD70EE621A70EE482A032082EEA10A22
:1052C0002DE0DDED3C2AF4EEC82AF1EE10FA0ED8FE
:1052D0009DED3D0AB4EEC80AF1EE10FA07DD70EE5E
:1052E000621A70EE482A042082EEA10A17E0DDED72
:1052F0003D2AF4EEC82AF1EE10FA0DD89DED3E0AD3
:10530000B4EEC80AF1EE10FA06DD70EE621A70EE25
:10531000482A82EEA10A01E0B0EE610A0520C1EB45
:10532000C10207A901EB8202694612F8203002EBA4
:10533000800001EB830370EEC00AD3ED001A41EE4A
:10534000001AC3ED001A027901EB8202D2ED001AB5
:1053500041EE201AC2ED001A027F01EB820292EDAB
:10536000001A02EE001A82ED001A90F8200001EBFC
:10537000800090ED000A02EE200A80ED000A9DED0B
:10538000000ADDED010A20EE2A0A00EE8A0ADDEDB0
:10539000020A00EEA90ADDED030A4CB000EE890A0C
:1053A000BDEC068B10BD000070720008000000000C
:1053B0001CB507490120CDE900014202002305A1E7
:1053C000074801F083FC01F079F800201CBD0000C3
:1053D000040000205461736B537461727400000008
:1053E000A92C00082DE9F041184C0F460546E66847
:1053F0002068001D00F00FFD38B9206890F82C10CF
:1054000001208840216981432161681C07D137B19F
:105410002168BDE8F0410E48091D00F034BD206848
:105420003544B5424560216805D2A06BBDE8F04126
:10543000091D00F010BD606B091D00F00CFDA06A95
:10544000854200D2A562BDE8F0810000480000203E
:10545000E40A00202DE9F041054600F021FD2D4C25
:10546000A068401CA06020682B4F10B1606930B369
:105470002BE02560A068012827D1002606EB8600D6
:1054800007EB800000F0D9FC761C202EF6D32348D1
:1054900000F0D3FC2148143000F0CFFC1F48283026
:1054A00000F0CBFC1D483C3000F0C7FC1B485030DE
:1054B00000F0C3FC194860631430A06305E0206865
:1054C000E96AC06A884200D82560606A401C606250
:1054D0006864E96A0120226988401043206101EB79
:1054E000810007EB8000291D00F0CDFC00F016FDC7
:1054F000606900280CD02068E96AC06A884207D237
:1055000007494FF080500860BFF34F8FBFF36F8F94
:10551000BDE8F0814800002014080020940A002013
:1055200004ED00E010B500F0BBFC0E4C2068A0B903
:105530000D4800F082FC0C48143000F07EFC0A4854
:10554000E0601430206100221021052001F0EAF80B
:10555000206010B105A100F0BDFDBDE8104000F0D5
:10556000DDBC000084000020F80A0020546D725158
:105570000000000070B5114E114C17E000F0EAFF7A
:105580003068B8B101F002FD00F08AFCF068C5682F
:10559000281D00F040FCA068401EA0606068401E0E
:1055A000606000F0BBFC284600F055F860680028F9
:1055B000E4D170BD01F0EAFCF8E70000D00A002059
:1055C0004800002030B4026C0B46002A0BD0C168A2
:1055D0001144C1604468A14201D30168C16030BC7C
:1055E0001846FAF75BBE30BC70472DE9F041856B79
:1055F000174604460026026C82B1C7B1E068FAF78C
:105600004DFEE168206C091AE1602268914202D2E5
:105610006168081AE060022F16D017E02068A8B968
:10562000606801F009FC0646002060600EE0A0689A
:10563000FAF734FE216CA0680844A06061688842D3
:1056400004D32068A06001E005B16D1E6D1CA56348
:105650003046BDE8F08110B50446006B00F092FCC6
:105660002046BDE8104000F08DBC000010484FF40B
:105670003841420706D0C01D0D4920F00700411AED
:10568000C1F538410B4A00230144C2E9000308393F
:10569000103A21F0070111604B600B600B1AC0E952
:1056A000001393604FF000405360D06070470000DB
:1056B000200B0020A8000020074C4FF08056074D1B
:1056C000FFF758FF20680128FAD92E60BFF34F8FEB
:1056D000BFF36F8FF4E700001408002004ED00E032
:1056E0002DE9F047DDE909840E4617468246910010
:1056F0009946089DA522206BFAF7E2FD6FF00301A1
:10570000206B01EB8701084420F00707780705D0DC
:1057100040F22B3219A11FA0FDF7E2FE0020221853
:10572000315C82F83410315C11B1401C1028F6D382
:10573000002684F84360202D00D31F25E562C4E9CC
:105740001356201D00F084FB04F1180000F080FBCC
:105750002461C5F120006462A061666584F8586028
:105760004A465146384600F009FB2060B8F1000F68
:1057700001D0C8F80040BDE8F08700002E2E5C2E56
:105780002E5C4672656552544F535C7461736B7343
:105790002E6300004572726F723A25732C25640DDA
:1057A0000A00000030B5114900E011460A68824243
:1057B000FBD34B685C18844203D1406818444860AE
:1057C000084643681C18944209D1084C103C2468D0
:1057D000A24209D052681A4442600A681268026004
:1057E000814200D0086030BD0460F9E7A8000020C5
:1057F00070B5002441600B4D0061914206D8D11A6A
:105800008269914206D2011D286907E09A4203D2BB
:10581000994201D3012403E0011DE86800F01BFB5D
:10582000204670BD8400002010B5044600F038FB0F
:10583000A06B28B15FF0000400F070FB204610BDA3
:105840000124F9E72DE9F34100980F460026846C06
:105850002CB940F6CE1216A11BA0FDF741FEA06B9D
:10586000E16B884205D340F6CF1211A116A0FDF7D7
:1058700037FEA06BE16B88420CD294F945503A4652
:1058800069462046FFF7B1FE0646681C05D06D1C30
:1058900084F845503046BDE8FC81606A0028F9D0A4
:1058A00004F1240001F024FB0028F3D00126F1E7E5
:1058B0002E2E5C2E2E5C4672656552544F535C71E1
:1058C000756575652E6300004572726F723A2573B7
:1058D0002C25640D0A000000F8B5054614480E4654
:1058E000C068C068C468201D00F095FAE06901280E
:1058F00017D1A0692B46411932462046FFF778FFA1
:1059000078B100200346014600902A46204601F067
:1059100027FC30B907494FF4027201F11800FDF776
:10592000DFFD616A01B02046BDE8F0400847000095
:1059300084000020C470000870B588B02F4E53E07A
:105940000498002806DADDE90601059A90470498D4
:10595000002849DB069C606910B1201D00F05BFA4D
:1059600002A800F0A7F8054604980A283CD2DFE810
:1059700000F00505053B273805053B270598A1697B
:10598000034601442A462046FFF732FF00282BD069
:10599000616A20468847E069012825D100200090EF
:1059A0000598A169002342181946204601F0D8FB4A
:1059B000D0B940F2213212A117A0FDF791FD13E0FA
:1059C0000598A06128B94FF44E720DA112A0FDF701
:1059D00087FDA0692B4641191A462046FFF708FFAC
:1059E00002E0204600F0CEFA00231A4604A93068EF
:1059F00000F0D6FE0028A3D108B070BD84000020BE
:105A00002E2E5C2E2E5C4672656552544F535C748C
:105A1000696D6572732E63004572726F723A2573F9
:105A20002C25640D0A000000F8B50D46064600F06E
:105A300091FD684600F03EF80446009810B101F070
:105A4000A5FAF8BD1148ADB101690968D9B10025C1
:105A5000311B2A46006800F051FB01F097FA00283C
:105A6000EFD10B494FF080500860BFF34F8FBFF369
:105A70006F8FF8BDA642EBD801F088FA2146304678
:105A8000FFF72AFFF8BD0125E2E7000084000020AF
:105A900004ED00E00648416B096829B1416BC96813
:105AA000C9684968816270474FF0FF31FAE700002A
:105AB0004800002070B5054601F042F9064E044644
:105AC000B068844203D200F009F8012000E0002011
:105AD00028602046B46070BD84000020F8B5184DE1
